:04000000D0EF3AF013
:1074EA00C2821200020E8AEC3AF012000102030470
:1074FA0000AF04FEC450026EC350016E1200C2A255
:10750A0002D0010E01D0000E1200026E0D0E016EA5
:10751A00FC0EE82EFED7012EFCD7022EF7D712005A
:10752A00036E02500DEC3BF00250030AD8A402D0BD
:10753A00010E01D0000E4A6E0350A8EC3DF0120075
:10754A007F0E0F140E100D10D8B406D0000E0D1AAF
:10755A00000E0E1A800E0F1A0DC00DF00EC00EF09E
:10756A000FC00FF0120045C001F046C002F04450AF
:10757A0037EC3BF066EC3BF027C047F028C048F0F8
:10758A0029C049F047C035F048C036F049C037F045
:10759A00A4EC3BF0EFD74A6A496A486A476AF60E92
:1075AA00F66E740EF76E000EF86E00EE3FF010EEF7
:1075BA0008F00900F5CFEEFFE550E150FAE1000EC0
:1075CA00F86E0001B8EF3AF0000E0C6E0A50800A0D
:1075DA00F36E800EF35C000ED8B4095CD8B006D006
:1075EA00096C0A1ED8B00A2A010E0C6E09C001F0F5
:1075FA000AC002F0036A8E0E046E0CC005F07FEC1E
:10760A003CF001C009F002C00AF003C00BF01200FE
:10761A00016E000E956E939093929394939613D065
:10762A008A800DD08A908A820BD08A908A928A8424
:10763A0008D08A908A928A948A8613D08A908A92EB
:10764A008A948A960ED00150010AD8B4E9D7030A5F
:10765A00D8B4E8D7010AD8B4E8D7070AD8B4E9D722
:10766A00EDD71200056E000EC26E000EC06ED890E5
:10767A0001303C0BC26E01C003F0033AF00E031650
:10768A00300E031602500F0B0310C16E05C003F033
:10769A00D8900336D8900336380E031605C004F086
:1076AA00043A0F0E0416070E04160550800B041038
:1076BA000310C06E01AE03D09E9C9D8CF28CC280DA
:1076CA001200000E2A6E000E2B6E000E2C6E75EC48
:1076DA003AF084EC3AF00009D8A4FBD77FEC3AF0F0
:1076EA0001C009F002C00AF0E9EC3AF009C02AF038
:1076FA000AC02BF00BC02CF0000E0C6EA00E0D6E03
:10770A00400E0E6E2AC009F02BC00AF02CC00BF0F6
:10771A0019EC3EF009C018F00AC019F00BC01AF0B3
:10772A00000E1B6E800E1C6E440E1D6E3DEC3DF06D
:10773A0018C027F019C028F01AC029F01200000E4C
:10774A003E6E000E3D6E20EE3FF010EE38F0050E54
:10775A00DECFE6FFE82EFCD7000E286E380E276E25
:10776A0035C029F036C02AF037C02BF08BEC3EF03A
:10777A001ED0010E026E3B5095EC3AF077EC3AF0CF
:10778A00020E026E3A5095EC3AF077EC3AF0030E9C
:10779A00026E395095EC3AF077EC3AF0040E026E2C
:1077AA00385095EC3AF077EC3AF03D4A3E2A3E5092
:1077BA00800A800F1F0ED8B43D5CD8B01200D9D70A
:1077CA00000E066E0250800AF36E800EF35C000E05
:1077DA00D8B4015CD8B006D0016C021ED8B0022A17
:1077EA00010E066E0450800AF36E800EF35C000EE2
:1077FA00D8B4035CD8B004D0036C041ED8B0042AF1
:10780A0004500310D8B418D0010E056E04D0D890D5
:10781A0003360436052A04AEFAD70350015C045035
:10782A000258D8A004D00350015E0450025AD890DE
:10783A0004320332052EF1D70650D8B404D0016CB5
:10784A00021ED8B0022A01C001F002C002F01200E2
:10785A00000E066E0450800AF36E800EF35C000E72
:10786A00D8B4035CD8B006D0036C041ED8B0042A7E
:10787A00010E066E0250800AF36E800EF35C000E53
:10788A00D8B4015CD8B006D0016C021ED8B0022A66
:10789A00010E061A000E086E000E076E0450031041
:1078AA00D8B41CD0010E056E04D0D8900336043625
:1078BA00052A04AEFAD7D890073608360350015C79
:1078CA0004500258D8A005D00350015E0450025A51
:1078DA000780D89004320332052EEDD70650D8B46B
:1078EA0004D0076C081ED8B0082A07C001F008C0E7
:1078FA0002F012000450D8B405D00150021003104F
:10790A00D8A40CD0000E016E000E026E000E036E9B
:10791A0044D0042AD890033202320132000E0114F4
:10792A00066E000E0214076EFE0E0314086E065051
:10793A0007100810D8B40CD0ECD7042A010E01267F
:10794A00000E0222000E0322D890033202320132C4
:10795A00000E0114066E000E0214076EFF0E0314C9
:10796A00086E065007100810D8B406D0E6D70406E9
:10797A00D89001360236033602AEF9D704A0029E29
:10798A00D8900432045003120550D8A4038E01C0C3
:10799A0001F002C002F003C003F012001AC01CF08A
:1079AA001D6A1E6A19341C3601E31D801C50266E9E
:1079BA00266601D038D0170E1C6E18C01DF019C0EB
:1079CA001EF01AC01FF01C28206E04D0D8901F3257
:1079DA001E321D32202EFAD71D50216E198EFF0E2F
:1079EA001816FF0E1916000E1A161850226E195084
:1079FA00236E1A50246E256A8E0E265E26AE10D08D
:107A0A002650800A1C6EF10E800A1C5CD8A00BD08E
:107A1A00D8902532243223322232263EF9D714D086
:107A2A00170E26640FD0000E186E000E196E000E87
:107A3A001A6E000E1B6E1BD0D890223623362436BF
:107A4A00253626062666F8D72150D8B408D0251E32
:107A5A00241E231E226C000E23222422252222C049
:107A6A0018F023C019F024C01AF025C01BF0120028
:107A7A001AC01EF01F6A206A19341E3601E31F80DD
:107A8A001E50256E256601D00CD01DC01EF01F6A3F
:107A9A00206A1C341E3601E31F801E50266E26669D
:107AAA0007D0000E186E000E196E000E1A6E4AD01C
:107ABA00000E216E000E226E000E236E2650890FD4
:107ACA00255E1AC026F01D50261A800E2616198E1B
:107ADA00FF0E1816FF0E1916000E1A161C8EFF0E30
:107AEA001B16FF0E1C16000E1D16180E246ED890BB
:107AFA002136223623361B50185C1C5019581D504B
:107B0A001A58D8A007D01B50185E1C50195A1D507D
:107B1A001A5A2180D890183619361A36242EE7D7E1
:107B2A0021C001F022C002F023C003F025C004F0F6
:107B3A0026C005F07FEC3CF001C018F002C019F035
:107B4A0003C01AF01200016E4A04D8B416D04CD001
:107B5A00400E11D0790E0FD0240E0DD0300E0BD05E
:107B6A00190E09D0120E07D0020E05D0780E03D0D6
:107B7A00000E01D0100E8C6E1FD00150000AD8B42E
:107B8A00E7D7010AD8B4E6D7030AD8B4E5D7010A79
:107B9A00D8B4E4D7070AD8B4E3D7010AD8B4E2D7ED
:107BAA00030AD8B4E1D7010AD8B4E0D70F0AD8B487
:107BBA00DFD7010AD8B4DED7000E4A6E34D0C00E21
:107BCA0011D0F90E0FD0A40E0DD0B00E0BD0990E15
:107BDA0009D0920E07D0820E05D0F80E03D0800E7F
:107BEA0001D0900E8C6E1FD00150000AD8B4E7D78E
:107BFA00010AD8B4E6D7030AD8B4E5D7010AD8B43B
:107C0A00E4D7070AD8B4E3D7010AD8B4E2D7030AFB
:107C1A00D8B4E1D7010AD8B4E0D70F0AD8B4DFD76D
:107C2A00010AD8B4DED712000BC00FF0106A116A2D
:107C3A000A340F3601E310800F50156E156601D015
:107C4A000CD00EC00FF0106A116A0D340F3601E322
:107C5A0010800F50176E176607D0000E096E000EBF
:107C6A000A6E000E0B6E51D017507B0F15260BC0F3
:107C7A0017F00E50171A800E17160A8E0D8EFF0E69
:107C8A000C16FF0E0D16000E0E16000E126E000ECA
:107C9A00136E000E146E070E166E09A006D00C5055
:107CAA0012260D5013220E501422D8900B320A328B
:107CBA000932D8900C360D360E36162EEED7090E2E
:107CCA00166E09A006D00C5012260D5013220E5023
:107CDA001422D8900B320A320932D8901432133255
:107CEA001232162EEED712C001F013C002F014C0E1
:107CFA0003F015C004F017C005F07FEC3CF001C09A
:107D0A0009F002C00AF003C00BF0120029C018F0F3
:107D1A002AC019F02BC01AF0D3EC3CF018C02CF092
:107D2A0019C02DF01AC02EF01BC02FF02CC033F052
:107D3A002DC034F033C001F034C002F0000E046EDE
:107D4A000A0E036E2DEC3CF0015027C0D9FF28C063
:107D5A00DAFFDF6E274A282A33C001F034C002F066
:107D6A00000E046E0A0E036EE5EC3BF0015027C0CC
:107D7A00D9FF28C0DAFFDF6E33C009F034C00AF039
:107D8A00E9EC3AF009C00DF00AC00EF00BC00FF092
:107D9A00A5EC3AF00DC010F00EC011F00FC012F0B1
:107DAA0029C013F02AC014F02BC015F02AEC3FF0BA
:107DBA0010C030F011C031F012C032F0000E0C6E5B
:107DCA00C80E0D6E420E0E6E30C009F031C00AF0B8
:107DDA0032C00BF019EC3EF009C018F00AC019F0D5
:107DEA000BC01AF0D3EC3CF018C02CF019C02DF0DF
:107DFA001AC02EF01BC02FF02CC033F02DC034F067
:107E0A00274A282A33C001F034C002F0000E046E5B
:107E1A000A0E036E2DEC3CF0015027C0D9FF28C092
:107E2A00DAFFDF6E274A282A33C001F034C002F095
:107E3A00000E046E0A0E036EE5EC3BF0015027C0FB
:107E4A00D9FF28C0DAFFDF6E120012C016F0176AD7
:107E5A00186A1134163601E3178016501B6E15C0C6
:107E6A0016F0176A186A1434163601E3178016508A
:107E7A001A6E1B50D8B40CD01A501B5CD8B00FD055
:107E8A001B5000081A24166E190E165CD8A007D0CB
:107E9A0013C010F014C011F015C012F0ABD01A5074
:107EAA00D8B40CD01B501A5CD8B00FD01A500008A6
:107EBA001B24166E190E165CD8A007D010C010F03D
:107ECA0011C011F012C012F095D0060E196E12BE32
:107EDA00198E15BE198C118EFF0E1016FF0E111673
:107EEA00000E1216148EFF0E1316FF0E1416000E35
:107EFA0015161A501B5CD8B01AD0D89013361436FF
:107F0A0015361A061A501B18D8B40DD0190619C0FE
:107F1A0016F0070E1616D8B406D0EFD7D89012323C
:107F2A00113210321B2A1A501B62F8D71DD01B506F
:107F3A001A5CD8B019D0D8901036113612361B06F2
:107F4A001A501B18D8B40DD0190619C016F0070E0E
:107F5A001616D8B406D0EFD7D89015321432133289
:107F6A001A2A1A501B62F8D719AE0CD0FF0E101A33
:107F7A00FF0E111AFF0E121A010E1026000E112200
:107F8A00000E122219AC0CD0FF0E131AFF0E141A8F
:107F9A00FF0E151A010E1326000E1422000E1522CA
:107FAA00000E196E10501326115014221250152269
:107FBA0015AE0ED0FF0E131AFF0E141AFF0E151A65
:107FCA00010E1326000E1422000E1522010E196E40
:107FDA0013C001F014C002F015C003F01BC004F076
:107FEA0019C005F07FEC3CF001C010F002C011F09E
:067FFA0003C012F01200AA
:020000040020DA
:08000000FFFFFFFFFFFFFFFF00
:020000040030CA
:0E000000040C1F1EFF8081FF0FC00FE00F4099
:00000001FF
