:020000040000FA
:06000000D9EF06F012002A
:0A0006000200070E00006E0000006B
:1000100003000000060E0000710000000100000057
:10002000019E08D0019E09AE05D0086C091EE86A41
:100030000922018E09C003F008C002F0136A126A97
:100040008E0E046E056AEDEF01F0016A29EC02F0F4
:1000500041EC02F001B6D1EF01F001A205D001BAE6
:10006000D1EF01F0D8EF01F001BAE4EF01F001A007
:1000700005D001B8D1EF01F0E4EF01F001B8D8EFFD
:1000800001F0056A7F0E0A24046EE86A05220F500B
:10009000045EE86A055A1A0E106E0A6A126A136A3A
:1000A000026A036A0C50075E0D50085A0E50095A36
:1000B000000E0A5A09E70C5007260D5008220E5070
:1000C0000922000E0A2201D0128AD890073608367B
:1000D00009360A36D8901236133602360336102EF9
:1000E000E1D7095008100710D8A4128AEDEF01F0EB
:1000F000016A29EC02F041EC02F001B6D1EF01F007
:1001000001A205D001B8D1EF01F0D8EF01F001AAAA
:1001100005D001B0D1EF01F0D8EF01F001B002D06D
:1001200001A802D0E4EF01F0056A0F500A24046E22
:10013000E86A05227E0E045EE86A055A126A136AAE
:10014000026A036A0E500902F4CF03F0F3CF02F003
:100150000D500902F3501326F4500222000E032220
:100160000E500802F3501326F4500222000E032210
:100170000C500902F3501226F4501322000E0222F2
:1001800003220D500802F3501226F4501322000EE1
:10019000022203220E500702F3501226F4501322BB
:1001A000000E022203220C500802F4501226000E08
:1001B0001322022203220D500702F4501226000ED1
:1001C000132202220322EDEF01F00F7E016A29ECD7
:1001D00002F041EC02F001B6D1EF01F001A20AD029
:1001E00001AA03D001BED1EF01F001A4DDEF01F0BF
:1001F000DAEF01F001AA05D001ACDDEF01F0DAEF92
:1002000001F001A00AD001A808D001BE04D001A4C9
:1002100002D0E6EF01F0EAEF01F0126A056A0F5032
:100220000A5C116E10E307C013F008C002F009C0A9
:1002300003F00AC010F00CC007F00DC008F00EC0AB
:1002400009F0013A09D00CC013F00DC002F00EC045
:1002500003F00FC010F0116C019E01BC018E10C0A4
:1002600004F001B019EF02F01A0E116019EF02F05C
:10027000046A0A6A01A408D0076C081E091E0A1E37
:10028000E86A082209220A2201AC08D0136C021E77
:10029000031E041EE86A022203220422066A115287
:1002A00007E00A340932083207320632112EF9D734
:1002B0000750132608500222095003220A50042234
:1002C00006C012F0019E04AE0BD0126C131E021E6B
:1002D000031E041EE86A1322022203220422018E56
:1002E00004A006D0D8800332023213321232102A10
:1002F00010C004F0EDEF01F0006A0EAE85EF01F0E2
:100300000D6C0E1EE86A0E22001E09AE8DEF01F084
:10031000086C091EE86A0922001EA3EC06F009BE5B
:100320009DEF01F000AE000C086C091EE86A09227E
:10033000046C051EE86A0522000C00BE94EF01F073
:100340000188FF0C016A29EC02F001B6ACEF01F064
:1003500001A20ED001B405D07F0E096EFF0E086E0B
:100360001FD0800E096E086A1BD0096A086A18D06F
:1003700001B0FBD78F0E0A60EDD77E0E0A64F5D769
:100380008E0E0A5C05E0D890093208320A2AF8D7A6
:1003900001A406D0086C091EE86A092209AEE5D757
:1003A00012007F0E0A6EFF0E096E086E076E1200B5
:1003B0007F0E01BEFF0E0A6E02D07F0E0A6E800E07
:1003C000096E086A076AF3D701AE04D0800E0A6E80
:1003D000096AF7D70A6A096AF4D7035002101310A2
:1003E0001210F8E005BEF0D703BE0CD00450051083
:1003F000EBE0D89012361336023603360406D8A046
:100400000506F2D70550D4E10428D2E012AE11D08F
:100410007F0E121402E113A00CD0132AE86A022204
:10042000032207E3D880033202321332042A04285D
:10043000BFE00450C9E013C007F002C008F0033465
:10044000096E04300A6E09320A9E01BE0A8ED7EF89
:1004500001F009360A3602E30184017E06E10180DB
:100460000A6A096A086A076A12000A2803E0D88043
:1004700009321200D890093202E10182120001868D
:1004800012000E360F3602E3018C017E06E1018870
:100490000F6A0E6A0D6A0C6A12000F2803E0D880FA
:0E04A0000E321200D8900E32EAE1018A1200EC
:0204AE00D9CFA4
:1004B000E6FFE1CFD9FF060EE126F90EDBCF07F00C
:1004C000FA0EDBCF08F0FB0EDBCF09F0FC0EDBCF22
:1004D0000AF0A2EC01F0040E08C0DBFF050E09C013
:1004E000DBFF040EDBCF14F0050EDBCF15F00A0E98
:1004F0000D6E0E6A14C008F015C009F07CEC01F016
:1005000008C014F009C015F0FD0EDBCFE9FFFE0EA8
:10051000DBCFEAFF14C0EFFFFD0EDB2AFE0E01E386
:10052000DB2A040EDBCF14F0050EDBCF15F00A0E2C
:100530000D6E0E6A14C008F015C009F07CEC01F0D5
:1005400004C014F005C015F0FD0EDBCFE9FFFE0E70
:10055000DBCFEAFF14C0EFFFF90EDBCF14F0FA0E89
:10056000DBCF15F0FB0EDBCF16F0FC0EDBCF17F068
:10057000040EDBCF08F0050EDBCF09F012EC00F023
:1005800007C018F008C019F009C01AF00AC01BF023
:1005900018C00CF019C00DF01AC00EF01BC00FF0FF
:1005A00014C007F015C008F016C009F017C00AF013
:1005B000E5EC00F007C0DEFF08C0DEFF09C0DEFF8B
:1005C0000AC0DDFFDD52DD52D9CFE9FFDACFEAFF05
:1005D000EECF14F0EECF15F0EECF16F0EFCF17F010
:1005E0000C6A0D6AC80E0E6E420E0F6E14C007F034
:1005F00015C008F016C009F017C00AF078EC00F03A
:10060000A2EC01F0040E08C0DBFF050E09C0DBFF01
:10061000FD0EDB2AFE0E01E3DB2A040EDBCF14F015
:10062000050EDBCF15F00A0E0D6E0E6A14C008F031
:1006300015C009F07CEC01F008C014F009C015F0F9
:10064000FD0EDBCFE9FFFE0EDBCFEAFF14C0EFFFAC
:10065000FD0EDB2AFE0E01E3DB2A040EDBCF14F0D5
:10066000050EDBCF15F00A0E0D6E0E6A14C008F0F1
:1006700015C009F07CEC01F004C014F005C015F0C1
:10068000FD0EDBCFE9FFFE0EDBCFEAFF14C0EFFF6C
:10069000060EE15C02E2E16AE552E16EE552E7CF67
:1006A000D9FF1200D9CFE6FFE1CFD9FF070EE1262F
:1006B000DE6ADD6A010EF36E020EF3CFDBFFF36E2E
:1006C000030EF3CFDBFFF36E040EF3CFDBFFF36E0D
:1006D000050EF3CFDBFF060EDB6AD950FB0FE96E88
:1006E000FF0EDA20EA6EEECFE6FFEECFE6FFEECFAA
:1006F000E6FFEFCFE6FFD950020FE66E000EDA20DC
:10070000E66ED5DE146E060EE15E1450DECF14F0F8
:10071000DDCF15F0153404E214501E08000E1554F8
:1007200030E3010EE66E050EDBCFE6FF71EC04F060
:10073000E552E552FFEC04F0020EE66E040EDBCF4C
:10074000E6FF71EC04F0E552E552FFEC04F0030E15
:10075000E66EDBCFE6FF71EC04F0E552E552FFEC0C
:1007600004F0040EE66E020EDBCFE6FF71EC04F03F
:10077000E552E552FFEC04F0DF2A010E01E3DB2A2B
:10078000C5D7070EE15C02E2E16AE552E16EE5528F
:06079000E7CFD9FF1200C3
:0A079600D9CFE6FFE1CFD9FF956A45
:1007A0009390939293949396FE0EDB50040A1AE072
:1007B000070A13E0010A0CE0030A05E08A908A9216
:1007C0008A948A9614D08A808A928A948A960FD0C4
:1007D0008A908A828A948A960AD08A908A928A8497
:1007E0008A9605D08A908A928A948A8600D0E552A9
:1007F000E7CFD9FF1200D9CFE6FFE1CFD9FF000143
:10080000710536E1FE0EDB50090A2DE0010A29E0F0
:100810000F0A24E0010A1FE0030A1AE0010A15E0AA
:10082000070A10E0010A0BE0030A06E0010A01E0F2
:100830001DD0400E8C6E1AD0790E8C6E17D0240EFF
:100840008C6E14D0300E8C6E11D0190E8C6E0ED0B2
:10085000120E8C6E0BD0020E8C6E08D0780E8C6E41
:1008600005D08C6A03D0100E8C6E00D0716B35D021
:10087000FE0EDB50090A2EE0010A29E00F0A24E0EF
:10088000010A1FE0030A1AE0010A15E0070A10E056
:10089000010A0BE0030A06E0010A01E01ED0C00EC7
:1008A0008C6E1BD0F90E8C6E18D0A40E8C6E15D0E9
:1008B000B00E8C6E12D0990E8C6E0FD0920E8C6E84
:1008C0000CD0820E8C6E09D0F80E8C6E06D0800E85
:1008D0008C6E03D0900E8C6E00D0E552E7CFD9FF1E
:1008E0001200D9CFE6FFE1CFD9FFFD0EDBCFE6FF47
:1008F00052DFE552FD0EDB50030804E10001010E5A
:10090000716F02D00001716BFE0EDBCFE6FF73DF6B
:0A091000E552E552E7CFD9FF1200CF
:06091A00D9CFE6FFE1CF9A
:10092000D9FFE652DF6A0A0EDF5C07E2320EE66E9E
:10093000E7EC06F0E552DF2AF6D7E552E552E7CFBD
:10094000D9FF12004B0EE66EB9EC06F0E55200D06E
:100950001200D9CFE6FFE1CFD9FFE652DF6A140ECD
:10096000DF5C07E2190EE66EB9EC06F0E552DF2A0D
:10097000F6D700D0E552E552E7CFD9FF1200D9CF24
:10098000E6FFE1CFD9FFE652DF6AFE0EDB50D880EA
:10099000DF5407E3050EE66EB9EC06F0E552DF2AF8
:1009A000F4D700D0E552E552E7CFD9FF1200D9CFF6
:1009B000E6FFE1CFD9FF020EE126DF6AFE0EDB5033
:1009C000DF5C13E2010EDB6A0A0EF36E010EDBCF71
:1009D000F4FFF350F45C07E2640EE66ED0DFE552FC
:1009E000010EDB2AF1D7DF2AE9D7020EE15C02E231
:1009F000E16AE552E16EE552E7CFD9FF1200020E3F
:0A0A0000E66E8CEC06F0E5521200E1
:060A0A00D9CFE6FFE1CFA9
:100A1000D9FF040EE126DE6ADE6ADE6ADD6ADD5297
:100A2000DD5200EC07F0FBEC06F0000901E0FBD71B
:100A3000F2EC06F0F3CF14F0F4CF15F014C008F088
:100A400015C009F012EC00F007C0DEFF08C0DEFFA1
:100A500009C0DEFF0AC0DDFFDD52DD52D9CFE9FF5C
:100A6000DACFEAFFEECF1CF0EECF1DF0EECF1EF096
:100A7000EFCF1FF00C6A0D6AA00E0E6E400E0F6EC7
:100A80001CC007F01DC008F01EC009F01FC00AF00E
:100A900078EC00F007C018F008C019F009C01AF08F
:100AA0000AC01BF00C6A0D6A800E0E6E440E0F6EAB
:100AB00018C007F019C008F01AC009F01BC00AF0EE
:100AC00025EC00F007C014F008C015F009C016F0BE
:100AD0000AC017F014C006F015C007F016C008F0E1
:100AE00017C009F0040EE15C03E200D0E16AE552B0
:0A0AF000E16EE552E7CFD9FF1200D6
:060AFA00D9CFE6FFE1CFB9
:100B0000D9FFFD0EDBCFE9FFFE0EDBCFEAFFEF2AB8
:100B1000FD0EDBCFE9FFFE0EDBCFEAFFEF500A0848
:100B20004CE1FB0EDBCFE9FFFC0EDBCFEAFFEF2A47
:100B3000FD0EDBCFE9FFFE0EDBCFEAFFEF6AFB0E17
:100B4000DBCFE9FFFC0EDBCFEAFFEF500A0835E10F
:100B5000F90EDBCFE9FFFA0EDBCFEAFFEF2AFB0E3F
:100B6000DBCFE9FFFC0EDBCFEAFFEF6AF90EDBCF4C
:100B7000E9FFFA0EDBCFEAFFEF500A081EE1F70E9D
:100B8000DBCFE9FFF80EDBCFEAFFEF2AF90EDBCF70
:100B9000E9FFFA0EDBCFEAFFEF6AF70EDBCFE9FFE2
:100BA000F80EDBCFEAFFEF500A0807E1F70EDBCFC4
:100BB000E9FFF80EDBCFEAFFEF6AE552E7CFD9FF96
:020BC000120021
:0E0BC200060EF66E000EF76E000EF86E0001C5
:100BD0000900F550656F0900F550666F03E1656720
:100BE00001D03DD00900F550606F0900F550616FEC
:100BF0000900F550626F09000900F550E96E09001F
:100C0000F550EA6E090009000900F550636F09000C
:100C1000F550646F09000900F6CF67F0F7CF68F070
:100C2000F8CF69F060C0F6FF61C0F7FF62C0F8FF5F
:100C30000001635302E1645307E00900F550EE6ED2
:100C40006307F8E26407F9D767C0F6FF68C0F7FFEB
:100C500069C0F8FF00016507000E665BBFD7120090
:100C6000D9CFE6FFDACFE6FFE1CFD9FFE2CFDAFF57
:100C7000C26AC06AFC0EDB407F0B3C0BC26EFC0EEE
:100C8000DB38F00B300B146EFB0EDB500F0B141027
:100C9000C16EFD0EDB50040DF350380B156EFD0ECA
:100CA000DB380F0B070B146EFD0EDB50800B14109E
:100CB0001510C06EFC0EDBAE03D09E9C9D8CF28C9A
:0E0CC000C280E552E5CFDAFFE7CFD9FF120080
:020CCE0070C0F4
:100CD000E6FF6FC0E6FF6EC0E6FF30EC06F0E552BF
:100CE000E552E55205EC05F006C06AF007C06BF06E
:100CF00008C06CF009C06DF06AC0E6FF6BC0E6FF8B
:100D00006CC0E6FF6DC0E6FF52EC03F0E552E55221
:080D1000E552E552E7D712009D
:080D1800FF0EE350216EEF0E07
:100D200001D0F30EE76EE72E93EF06F00C0E206E67
:100D3000E76AE72E99EF06F0202E98EF06F0212EB5
:060D400091EF06F0120025
:0A0D4600056A046A100EE76ED890EB
:100D500008360936043605360D50045C0E50055829
:100D600005E30D50045E0E50055A082AE72EF0D711
:020D700012006F
:0E0D7200FF0EE350216E480E01D04C0EE76ECE
:100D8000E72EFED7E76AE72EFED7212EF7D7000021
:020D900012004F
:0E0D9200000EF36E00EE00F0080E01D8120005
:100DA000EA6002D0EE6AFCD7F350E9601200EE6A06
:020DB000FCD76E
:0E0DB20013EE00F023EE00F0F86A019CE1EC75
:0E0DC00005F002EC07F067EC06F0FBD712001E
:020DCE00FF0E16
:100DD000E350E84E1200000000D000D000D0E82E12
:040DE000FAD712002C
:0C0DE400C450176E166AC3501610F36E50
:060DF00017C0F4FF120021
:0A0DF600C250020B01E0010E1200D2
:040E0000C282120098
:020E04001200DA
:010E060000EB
:030E0700AF04FE37
:020000040030CA
:010001000CF2
:0100020019E4
:010003001EDE
:010005008179
:010006008079
:010008000FE8
:00000001FF
