:040000004BEF13F0BF
:10080000010000000A00000064000000E80300008E
:1008100010270000A086010040420F00809698003B
:1008200000E1F50500CA9A3B00803FCDCC3DD723BF
:100830003C12833AB7D138C62737388635C0D6330D
:10084000CC2B32708930E7DB2EE53C1E42A20D0036
:10085000803F00204100C842007A44401C4650C3FB
:100860004724744997184BBCBE4C6B6E4E03155011
:1008700079AD60F3497125312E3266560000000EC5
:1008800000010001686F4F0E0001676F5BEF09F018
:10089000000100018051250AD8B409D04BC0D9FF0E
:1008A0004CC0DAFF000180C0DFFF59EF09F0000EF5
:1008B00000010001786F000E0001776F000E00014B
:1008C0000001766F000E0001756F4DC0F6FF4EC03F
:1008D000F7FF0800F5CF01F0A1EC14F0D8A037D055
:1008E000000E00010001786F000E0001776F77C0E5
:1008F00011F078C012F0000E146E0A0E136E3EEC6A
:1009000014F011C077F012C078F04DC0F6FF4EC061
:10091000F7FF0800F5CF52F0D00E5224536E546A00
:10092000FF0E54225350000100017727545000015C
:10093000000178234D4A4E2A4DC0F6FF4EC0F7FF06
:100940000800F5CF01F0A1EC14F0D8B0D0D74DC01D
:10095000F6FF4EC0F7FF0800F5502E0AD8A437D096
:1009600000010001768D4D4A4E2A000E0001000163
:100970007F6F000E00017E6F1ED07EC011F07FC021
:1009800012F0000E146E0A0E136E3EEC14F04DC001
:10099000F6FF4EC0F7FF0800F5501126000E122298
:1009A000D00E1124000100017E6FFF0E1220000105
:1009B0007F6F4D4A4E2A4DC0F6FF4EC0F7FF08002C
:1009C000F5CF01F0A1EC14F0D8A010D0D6D7000ECE
:1009D000000100017F6F000E00017E6F0001000129
:1009E000768904D000010001768515D04DC0F6FF50
:1009F0004EC0F7FF4D4A4E2A08000001F5CF80F0A7
:100A000000018051000AD8B469EF09F0660AD8B431
:100A1000E9D75BEF09F0070E000100017615D8B4A5
:100A20006BD30001000176A907D0000E0001000180
:100A30007F6F060E00017E6F67C0D9FF68C0DAFFC6
:100A40000001DECF7BF00001DECF7CF00001DDCFC6
:100A50007DF0030E000100016727000E00016823EE
:100A6000000100017D51800A800F07E1000E0001A6
:100A70007C5D03E1000E00017B5DD8B012D07BC02D
:100A800001F07CC002F07DC003F08EEC14F003C0D6
:100A90007DF002C07CF001C07BF0030E000100017C
:100AA0007513000E000100017A6F000E0001796FCE
:100AB0007F0E000100017D1500017C1100017B11FA
:100AC000D8B491D0820E526EFF0E536E00017BC0DF
:100AD00054F000017CC055F000017DC056F00001CB
:100AE0007EC057F0100E05D0D8905732563255328E
:100AF0005432E82EF9D75450522400010001796F86
:100B00000001000E53207A6F000100017907D8A080
:100B10007A0779C011F07AC012F0000E146E030E3D
:100B2000136E3EEC14F011C079F012C07AF079C067
:100B300008F07AC009F0000E0B6E0A0E0A6E49EC3E
:100B400011F008C079F009C07AF0000100017AAF15
:100B500005D0000100017907D8A07A070001000143
:100B600079510008376E70EC09F039C074F038C064
:100B700073F037C072F00001000E386E0001720E83
:100B8000376E7BC039F07CC03AF07DC03BF002ECA0
:100B900014F072C001F073C002F074C003F0000ED4
:100BA000046E800E056E3F0E066E01EC11F0D8B09B
:100BB00006D0000100017907D8A07A0714D072C0CE
:100BC00001F073C002F074C003F0000E046E200E3A
:100BD000056E410E066E01EC11F0D8A004D00001A4
:100BE0000001794B7A2B000100017F51800A800FB0
:100BF0000D0ED8B47E5DD8B012D00001000E476E45
:100C000000017B0E466E7EC037F098EC0BF039C0C9
:100C10004AF038C049F037C048F020EC14F0000129
:100C200000017A51800A800F0A0ED8B4795DD8B0DD
:100C300022D07F0E000100017D1500017C11000112
:100C40007B11D8B467D07BC017F07CC018F07DC092
:100C500019F0D0EC0FF01A50171018101910D8A472
:100C600059D0000100017A51800A800F020ED8B4D9
:100C7000795DD8A04FD072C001F073C002F074C08B
:100C800003F0700E046E890E056E400E066E01ECC8
:100C900011F0D8B003D00001F70E02D00001F80E19
:100CA00000017927FF0E00017A2379C037F070EC3C
:100CB00009F039C074F038C073F037C072F07BC0EF
:100CC00001F07CC002F07DC003F072C004F073C07C
:100CD00005F074C006F0BEEC0DF004C066F003C071
:100CE00065F002C064F001C063F063C06DF064C0E1
:100CF0006EF065C06FF066C070F0000E000100017C
:100D00007B6F000E000100017C6F000E00010001EE
:100D10007D6F2FD07BC017F07CC018F07DC019F01C
:100D2000D0EC0FF01AC070F019C06FF018C06EF060
:100D300017C06DF00001000E1E6E00017B0E1D6ECF
:100D40006DC009F06EC00AF06FC00BF070C00CF0FF
:100D5000C0EC12F00BC021F00AC020F009C01FF057
:100D6000E4EC13F0000E000100017A6F000E0001A8
:100D7000796F526E010E00010001806F5250000128
:100D8000000180510A0AD8B421D00001000180512D
:100D9000040D000EF324F66E080EF420F76E090021
:100DA000F550000100016D5D0900F55000016E591C
:100DB0000900F55000016F590900F5500001705904
:100DC000D8A004D000010001802BD9D7000180C039
:100DD00052F0536A52BE5306000100017E51522662
:100DE000000100017F515322000100017951522678
:100DF000000100017A515322525000010001775F37
:100E0000535000010001785B000100017F517E1109
:100E1000D8B405D0000100017707D8A07807030EE9
:100E2000000100017515526E000E000100017615DB
:100E3000536E53505210D8B40ED008D04BC0D9FFC7
:100E40004CC0DAFF200EDF6E4B4A4C2A0001000135
:100E50007707D8A07807000100017851800A800F39
:100E6000010ED8B4775DD8B0E9D7030E00010001B8
:100E70007515526E000E000100017615536E535029
:100E80005210D8B443D04BC0D9FF4CC0DAFF2D0E5E
:100E90003AD06DC001F06EC002F06FC003F070C0B8
:100EA00004F0000100018051040D000EF324F66EE1
:100EB000080EF420F76E0900F5CF05F00900F5CF14
:100EC00006F00900F5CF07F00A00F5CF08F091EC25
:100ED00011F001C069F002C06AF069C001F06AC097
:100EE00002F0000E046E0A0E036E9FEC13F001C0B8
:100EF00069F002C06AF0000100016951300F4BC077
:100F0000D9FF4CC0DAFFDF6E4B4A4C2A00010001CA
:100F1000800700018029D8B40ED0BBD74BC0D9FFC1
:100F20004CC0DAFF300EDF6E4B4A4C2A0001000144
:100F30007907D8A07A07000100017A51800A800F52
:100F4000010ED8B4795DD8B0E9D7000100017F5116
:100F5000800A800F090ED8B47E5DD8A007D0526EEB
:100F6000080E00010001806F525002D07EC080F058
:100F7000000100018051000100017E5F000E0001B0
:100F800080BFFF0E000100017F5B00010001805166
:100F9000D8B408D04BC0D9FF4CC0DAFF2E0EDF6E9C
:100FA0004B4A4C2A80C037F070EC09F039C062F02F
:100FB00038C061F037C060F07BC029F07CC02AF0F7
:100FC0007DC02BF060C026F061C027F062C028F021
:100FD0004FEC0EF028C019F027C018F026C017F00B
:100FE000D0EC0FF01AC070F019C06FF018C06EF09E
:100FF00017C06DF065D06DC001F06EC002F06FC01B
:1010000003F070C004F0000100018051040D000ED7
:10101000F324F66E080EF420F76E0900F5CF05F004
:101020000900F5CF06F00900F5CF07F00A00F5CF6B
:1010300008F091EC11F001C06BF002C06CF06BC0D5
:1010400001F06CC002F0000E046E0A0E036E9FECFD
:1010500013F001C06BF002C06CF0000100016B5195
:10106000300F4BC0D9FF4CC0DAFFDF6E4B4A4C2A21
:101070006DC001F06EC002F06FC003F070C004F0EC
:10108000000100018051040D000EF324F66E080EDD
:10109000F420F76E0900F5CF05F00900F5CF06F052
:1010A0000900F5CF07F00A00F5CF08F08BEC12F03D
:1010B00004C070F003C06FF002C06EF001C06DF0AC
:1010C00000010001800700018029D8B40ED093D719
:1010D0004BC0D9FF4CC0DAFF300EDF6E4B4A4C2AB2
:1010E000000100017E07D8A07F07000100017F51A9
:1010F0007E11D8B4E0D0ECD7000100017F517E1101
:10110000D8A40CD00001000170516D116E116F1147
:10111000D8A404D0000100017E4B7F2B800E00017B
:10112000000180BF7F0E526E000100017E51000160
:101130000001805D000100017F51800A5258D8B043
:1011400003D07EC080F01ED0000100017F51800AD4
:10115000526E000100018051000100017E5D800E91
:101160000001000180BF7F0E5258D8B00BD00001A3
:1011700000018051000100017E6F00017F6B0001C2
:101180007EBF7F070001000178517711D8B413D0DA
:10119000030E000100017515526E000E00010001E2
:1011A0007615536E53505210D8B405D0000100018B
:1011B0007707D8A078070001000176AD26D000019E
:1011C00000017F51800A526E000100017751000139
:1011D00000017E5D000100017851800A5258D8B0AC
:1011E0000DD0000100017E5100010001775F000178
:1011F00000017F5100010001785B07D0000E000163
:101200000001786F000E0001776F800E0001000171
:1012100080BF7F0E526E0001000177510001000176
:10122000805D000100017851800A5258D8B00ED07C
:1012300000010001805100010001775F000E0001F4
:1012400080BFFF0E00010001785B07D0000E000197
:101250000001786F000E0001776F000100017851E6
:101260007711D8B412D04BC0D9FF4CC0DAFF200E92
:10127000DF6E4B4A4C2A000100017707D8A078079F
:10128000000178517711D8A4EED7030E00010001B8
:101290007515526E000E000100017615536E535005
:1012A0005210D8B408D04BC0D9FF4CC0DAFF2D0E75
:1012B000DF6E4B4A4C2A4DC0F6FF4EC0F7FF4D4A39
:1012C0004E2A08000001F5CF80F00001806748EF4A
:1012D00004F04BC0D9FF4CC0DAFF000EDF6E1200E5
:1012E00037AE08D1376C3750800A120FD8A09DD086
:1012F000000E146E030E136E000E0B6E0A0E0A6EB5
:10130000000E046E640E036E3750016E026A01BE59
:10131000020612EC12F001C008F002C009F049EC1C
:1013200011F0090E0824116E000E0920126E3EEC19
:1013300014F0280E1124F66E080E1220F76E090024
:10134000F5CF3AF00900F5CF3BF00900F5CF3CF0BE
:101350003CC02BF03BC02AF03AC029F0000E146EBE
:10136000030E136E000E0B6E640E0A6E3750086E7D
:10137000096A08BE090649EC11F0120E0824116E24
:10138000000E0920126E3EEC14F0280E1124F66EA9
:10139000080E1220F76E0900F5CF3DF00900F5CFD9
:1013A0003EF00900F5CF3FF03FC028F03EC027F0E7
:1013B0003DC026F04FEC0EF028C042F027C041F0AF
:1013C00026C040F040C026F041C027F042C028F0BF
:1013D000000E146E030E136E000E046E0A0E036EE2
:1013E0003750016E026A01BE020612EC12F001C013
:1013F00011F002C012F03EEC14F0280E1124F66E2B
:10140000080E1220F76E0900F5CF3AF00900F5CF6B
:101410003BF00900F5CF3CF03CC02BF03BC02AF07C
:101420003AC029F04FEC0EF064D13750800A750FA6
:10143000D8A059D0000E146E030E136E000E0B6E62
:101440000A0E0A6E3750086E096A08BE090649EC92
:1014500011F0090E0824116E000E0920126E3EECE8
:1014600014F0280E1124F66E080E1220F76E0900F3
:10147000F5CF3AF00900F5CF3BF00900F5CF3CF08D
:101480003CC028F03BC027F03AC026F0000E146E96
:10149000030E136E000E046E0A0E036E3750016EBB
:1014A000026A01BE020612EC12F001C011F002C085
:1014B00012F03EEC14F0280E1124F66E080E1220E5
:1014C000F76E0900F5CF3DF00900F5CF3EF00900B9
:1014D000F5CF3FF03FC02BF03EC02AF03DC029F0D1
:1014E0004FEC0EF006D13750030D280EF324F66EA4
:1014F000080E0CD13750800A120FD8A09DD0000ED4
:10150000146E030E136E000E0B6E0A0E0A6E000EA2
:10151000046E640E036E3750016E026A01BE02064D
:1015200012EC12F001C008F002C009F049EC11F011
:10153000090E0824116E000E0920126E3EEC14F004
:101540004F0E1124F66E080E1220F76E0900F5CF2B
:101550003AF00900F5CF3BF00900F5CF3CF03CC074
:101560002BF03BC02AF03AC029F0000E146E030E97
:10157000136E000E0B6E640E0A6E3750086E096A09
:1015800008BE090649EC11F0120E0824116E000E77
:101590000920126E3EEC14F04F0E1124F66E080E68
:1015A0001220F76E0900F5CF3DF00900F5CF3EF0AF
:1015B0000900F5CF3FF03FC028F03EC027F03DC006
:1015C00026F04FEC0EF028C042F027C041F026C0B4
:1015D00040F040C026F041C027F042C028F0000E85
:1015E000146E030E136E000E046E0A0E036E375057
:1015F000016E026A01BE020612EC12F001C011F087
:1016000002C012F03EEC14F04F0E1124F66E080EDC
:101610001220F76E0900F5CF3AF00900F5CF3BF044
:101620000900F5CF3CF03CC02BF03BC02AF03AC09B
:1016300029F04FEC0EF05DD03750800A750FD8A01E
:101640005FD0000E146E030E136E000E0B6E0A0EAA
:101650000A6E3750086E096A08BE090649EC11F097
:10166000090E0824116E000E0920126E3EEC14F0D3
:101670004F0E1124F66E080E1220F76E0900F5CFFA
:101680003AF00900F5CF3BF00900F5CF3CF03CC043
:1016900028F03BC027F03AC026F0000E146E030E6F
:1016A000136E000E046E0A0E036E3750016E026A4E
:1016B00001BE020612EC12F001C011F002C012F0DD
:1016C0003EEC14F04F0E1124F66E080E1220F76E49
:1016D0000900F5CF3DF00900F5CF3EF00900F5CF48
:1016E0003FF03FC02BF03EC02AF03DC029F04FEC48
:1016F0000EF028C039F027C038F026C037F017D0D8
:101700003750030D4F0EF324F66E080EF420F76EDB
:101710000900F5CF3AF00900F5CF3BF00900F5CF0D
:101720003CF03CC039F03BC038F03AC037F0120012
:101730006D0E3764ABD0000E146E030E136E000EE8
:101740000B6E0A0E0A6E000E046E640E036E37C036
:1017500001F0026A12EC12F001C008F002C009F0B8
:1017600049EC11F0090E0824116E000E0920126ECA
:101770003EEC14F0280E1124F66E080E1220F76EBF
:101780000900F5CF3AF00900F5CF3BF00900F5CF9D
:101790003CF03CC02BF03BC02AF03AC029F0000ED0
:1017A000146E030E136E000E0B6E640E0A6E37C0BD
:1017B00008F0096A49EC11F0120E0824116E000EAF
:1017C0000920126E3EEC14F0280E1124F66E080E5D
:1017D0001220F76E0900F5CF3DF00900F5CF3EF07D
:1017E0000900F5CF3FF03FC028F03EC027F03DC0D4
:1017F00026F04FEC0EF028C045F027C044F026C07C
:1018000043F0000E146E030E136E000E046E0A0EEB
:10181000036E37C001F0026A12EC12F001C011F041
:1018200002C012F03EEC14F0280E1124F66E080EE1
:101830001220F76E0900F5CF3AF00900F5CF3BF022
:101840000900F5CF3CF03CC02BF03BC02AF03AC079
:1018500029F043C026F044C027F045C028F04FECE3
:101860000EF028C042F027C041F026C040F040C032
:1018700026F041C027F042C028F0000E296E000E6D
:101880002A6E3F0E2B6E4FEC0EF08BD00A0E376493
:1018900069D0000E146E030E136E000E046E0A0E55
:1018A000036E37C001F0026A12EC12F001C011F0B1
:1018B00002C012F03EEC14F0280E1124F66E080E51
:1018C0001220F76E0900F5CF3AF00900F5CF3BF092
:1018D0000900F5CF3CF03CC02BF03BC02AF03AC0E9
:1018E00029F0000E146E030E136E000E0B6E0A0E1E
:1018F0000A6E37C008F0096A49EC11F0090E082495
:10190000116E000E0920126E3EEC14F0280E112408
:10191000F66E080E1220F76E0900F5CF3DF00900B3
:10192000F5CF3EF00900F5CF3FF03FC028F03EC0B4
:1019300027F03DC026F04FEC0EF028C045F027C040
:1019400044F026C043F043C026F044C027F045C011
:1019500028F0000E296E000E2A6E3F0E2B6E4FEC03
:101960000EF01FD03750030D280EF324F66E080E2C
:10197000F420F76E0900F5CF3AF00900F5CF3BF0FF
:101980000900F5CF3CF03CC028F03BC027F03AC03E
:1019900026F0000E296E000E2A6E3F0E2B6E4FECC5
:1019A0000EF028C039F027C038F026C037F01200FA
:1019B0000F0E0F6E09C010F00AC011F00BC012F02C
:1019C0000F28136E04D0D890123211321032132E19
:1019D000FAD71050166E0F0E0F6E0CC010F00DC01F
:1019E00011F00EC012F00F28136E04D0D8901232EE
:1019F00011321032132EFAD71050156E1650D8B47B
:101A00000BD0155016600FD01650000815240F6E1D
:101A1000190E0F5CD8A007D00CC009F00DC00AF059
:101A20000EC00BF0AAD01550D8B40BD016501560CC
:101A30000FD01550000816240F6E190E0F5CD8A099
:101A400007D009C009F00AC00AF00BC00BF095D00E
:101A50000F6E060E146E0F500BBE148E0EBE148C3D
:101A60000A8EFF0E0916FF0E0A16000E0B160D8EBB
:101A7000FF0E0C16FF0E0D16000E0E1615501660FA
:101A800018D0D8900C360D360E361506155016188F
:101A9000D8B40BD014061450070BD8B406D0F1D725
:101AA000D8900B320A320932162A15501662F8D72E
:101AB0001AD01650156017D0D89009360A360B3652
:101AC000160615501618D8B40BD014061450070B70
:101AD000D8B406D0F1D7D8900E320D320C32152A78
:101AE00015501662F8D714AE0CD0FF0E091AFF0E6F
:101AF0000A1AFF0E0B1A010E0926000E0A22000E0A
:101B00000B2214AC0CD0FF0E0C1AFF0E0D1AFF0E98
:101B10000E1A010E0C26000E0D22000E0E220F6E64
:101B2000000E146E0F5009500C260A500D220B5057
:101B30000E220EAE10D0FF0E0C1AFF0E0D1AFF0E65
:101B40000E1A010E0C26000E0D22000E0E220F6E34
:101B5000010E146E0F500CC001F00DC002F00EC04B
:101B600003F016C004F014C005F0A5EC10F003C09B
:101B70000BF002C00AF001C009F012000F0E076E50
:101B800001C008F002C009F003C00AF007280B6E7C
:101B900004D0D8900A32093208320B2EFAD70850F6
:101BA000116E116601D061D00F0E076E04C008F0EF
:101BB00005C009F006C00AF007280B6E04D0D890C3
:101BC0000A32093208320B2EFAD70850106E10660E
:101BD00001D04BD0028EFF0E0116FF0E0216000E32
:101BE0000316058EFF0E0416FF0E0516000E0616D0
:101BF000000E0C6E000E0D6E000E0E6E000E0F6EBF
:101C00007F0E115E1050980F115E076E180E106E49
:101C10000750D8900C360D360E360F360450015C46
:101C20000550025806500358D8A007D00450015E52
:101C30000550025A0650035A0C80D89001360236DD
:101C40000336102EE6D711AE0DD01150800A970F33
:101C5000D8A00BD0D8900F320E320D320C32113E7C
:101C6000F9D714D0170E11640FD0000E016E000EBC
:101C7000026E000E036E000E046E10D0D8900C366B
:101C80000D360E360F3611061166F8D70CC001F06E
:101C90000DC002F00EC003F00FC004F012000F0ED2
:101CA0002C6E26C02DF027C02EF028C02FF02C2837
:101CB000306E04D0D8902F322E322D32302EFAD7FB
:101CC0002D50316E316601D015D00F0E2C6E29C00B
:101CD0002DF02AC02EF02BC02FF02C28306E04D00F
:101CE000D8902F322E322D32302EFAD72D50366E1C
:101CF000366607D0000E266E000E276E000E286E88
:101D000055D036507B0F312628C036F02B50361A6E
:101D1000800E3616278E2A8EFF0E2916FF0E2A16E3
:101D2000000E2B16000E326E000E336E000E346E57
:101D30002C6E070E356E2C5026A006D02950322668
:101D40002A5033222B503422D89028322732263280
:101D5000D89029362A362B36352EEED72C6E090E22
:101D6000356E2C5026A006D0295032262A50332218
:101D70002B503422D890283227322632D890343251
:101D800033323232352EEED732C001F033C002F09A
:101D900034C003F031C004F036C005F0A5EC10F0FB
:101DA00003C028F002C027F001C026F012000F0E79
:101DB0003D6E37C03EF038C03FF039C040F03D289E
:101DC000416E04D0D89040323F323E32412EFAD795
:101DD0003E50466E466601D015D00F0E3D6E3AC09D
:101DE0003EF03BC03FF03CC040F03D28416E04D087
:101DF000D89040323F323E32412EFAD73E50476EA5
:101E0000476607D0000E376E000E386E000E396E32
:101E10004CD0000E436E000E446E000E456E4750CF
:101E2000890F465E39C047F03C50471A800E47166E
:101E3000388EFF0E3716FF0E3816000E39163B8E01
:101E4000FF0E3A16FF0E3B16000E3C163D6E180EA6
:101E5000426E3D50D8904336443645363A50375C52
:101E60003B5038583C503958D8A007D03A50375ECC
:101E70003B50385A3C50395A4380D8903736383620
:101E80003936422EE7D743C001F044C002F045C0C6
:101E900003F046C004F047C005F0A5EC10F003C005
:101EA00039F002C038F001C037F0120003340434B6
:101EB0000D6E0D6601D05AD0063407340C6E0C66D8
:101EC00001D054D0038EFF0E0116FF0E0216FF0E36
:101ED0000316000E0416068EFF0E0416FF0E0516DE
:101EE000FF0E0616000E0716000E086E000E096E95
:101EF000000E0A6E000E0B6E7F0E0D5E0C50A00FD2
:101F00000D5E076E200E0C6E0750D890083609360D
:101F10000A360B360450015C05500258065003582F
:101F200007500458D8A009D00450015E0550025A49
:101F30000650035A0750045A0880D89001360236DA
:101F4000033604360C2EE1D70DAE0DD00D50800AAD
:101F50009F0FD8A00BD0D8900B320A32093208322A
:101F60000D3EF9D714D01F0E0D640FD0000E016E78
:101F7000000E026E000E036E000E046E10D0D8909C
:101F8000083609360A360B360D060D66F8D708C036
:101F900001F009C002F00AC003F00BC004F0120007
:101FA0000F0E1B6E17C01CF018C01DF019C01EF0DC
:101FB0001B281F6E04D0D8901E321D321C321F2EDB
:101FC000FAD71C50256E256601D035D0170E1B6E32
:101FD00017C01CF018C01DF019C01EF01B281F6E82
:101FE00004D0D8901E321D321C321F2EFAD71C503E
:101FF000206E188EFF0E1716FF0E1816000E1916FB
:102000001750216E1850226E1950236E246A8E0EBE
:10201000255E25AE0DD02550800A8F0FD8A00BD09D
:10202000D8902432233222322132253EF9D714D0DF
:10203000170E25640FD0000E176E000E186E000EDE
:10204000196E000E1A6E1BD0D89021362236233618
:10205000243625062566F8D72050D8B408D0241E8B
:10206000231E221E216C000E22222322242221C0A4
:1020700017F022C018F023C019F024C01AF0120083
:10208000000E836E000E956E9292929492908992B9
:102090008994899000EC15F0096E300E046E095099
:1020A000D5EC14F0096E050E016E0950F5EC14F034
:1020B000096E300E046E0950D5EC14F0096E010E55
:1020C000016E0950F5EC14F0096E320E046E0950E1
:1020D000D5EC14F0C4EC14F00009D8A4FBD7C4EC80
:1020E00014F00009D8A4FBD708C004F0D5EC14F014
:1020F000C4EC14F00009D8A4FBD7096E080E046ED6
:102100000950D5EC14F0C4EC14F00009D8A4FBD7A6
:10211000096E0F0E046E0950D5EC14F0C4EC14F0E7
:102120000009D8A4FBD7096E010E046E0950D5EC46
:1021300014F0C4EC14F00009D8A4FBD7096E800E8B
:10214000046E095020EC13F012000450D8B405D0EE
:10215000015002100310D8A40CD0000E016E000E26
:10216000026E000E036E4CD0042AD8900332023265
:102170000132000E0114066E000E0214076EFE0EF0
:102180000314086E065007100810D8B40CD0ECD712
:10219000042A010E0126000E0222000E0322D8900E
:1021A000033202320132000E0114066E000E0214D8
:1021B000076EFF0E0314086E065007100810D8B4FF
:1021C00006D0E6D70406D89001360236033602AEB2
:1021D000F9D704A0029ED89004320450086E076A12
:1021E000066A0650011207500212085003120550E9
:1021F000D8A4038E01C001F002C002F003C003F0B6
:10220000120003AE16D001C007F002C008F003C0F0
:1022100009F0071E081E091E072A000E08220922BF
:10222000000E0724016E000E0820026E800E0920A9
:10223000036E06AE16D004C007F005C008F006C055
:1022400009F0071E081E091E072A000E082209228F
:10225000000E0724046E000E0820056E800E092073
:10226000066E000E011A000E021A800E031A000EEE
:10227000041A000E051A800E061A0450015C05505F
:10228000025806500358D8B002D0D89001D0D88058
:1022900012000C6E000E0E6E0C500BAE08D00A6CC5
:1022A0000B1ED8B00B2A0C6E010E0E6E0C5009AE30
:1022B00006D0086C091ED8B0092A010E0E1A000EAD
:1022C000106E000E0F6E0B500A10D8B41ED00C6E9C
:1022D000010E0D6E0C5004D0D8900A360B360D2A24
:1022E0000BAEFAD7D8900F3610360A50085C0B5058
:1022F0000958D8A005D00A50085E0B50095A0F8023
:10230000D8900B320A320D2EEDD70E50D8B404D02F
:102310000F6C101ED8B0102A0FC008F010C009F0C2
:102320001200000E0A6E000E0B6E000E0C6E000EF8
:102330000D6E0850051006100710D8B42CD0096E89
:10234000010E0E6E095006D0D890053606360736B7
:1023500008360E2A08AEF8D7D8900A360B360C3657
:102360000D360550015C06500258075003580850BE
:102370000458D8A009D00550015E0650025A0750F3
:10238000035A0850045A0A80D8900832073206329D
:1023900005320E2EE1D70AC001F00BC002F00CC0CE
:1023A00003F00DC004F01200000E4B6E000E4C6ED8
:1023B000000E4D6E22EC15F01FEC15F00009D8A4AC
:1023C000FBD715EC15F001C009F002C00AF0C2EC11
:1023D00013F00BC04DF00AC04CF009C04BF0000EDA
:1023E000296EA00E2A6E400E2B6E4BC026F04CC0FC
:1023F00027F04DC028F04FEC0EF028C039F027C070
:1024000038F026C037F0000E3A6E800E3B6E440E58
:102410003C6ED7EC0EF039C04AF038C049F037C0F6
:1024200048F01200056E000E076E055002AE08D08F
:10243000016C021ED8B0022A056E010E076E05500F
:1024400004AE04D0036C041ED8B0042A0450031058
:10245000D8B41AD0056E010E066E055004D0D8907F
:1024600003360436062A04AEFAD70350015C045042
:102470000258D8A004D00350015E0450025AD890EC
:1024800004320332062EF1D70750D8B404D0016CC1
:10249000021ED8B0022A01C001F002C002F01200F0
:1024A0000F0EC16E5C6E380E086E5C5040EC10F082
:1024B0005C6E0C0E046E5C50D5EC14F05C6E010E7C
:1024C000046E5C50D5EC14F05C6E800E046E5C50B3
:1024D00020EC13F00001000E066E0001900E056E58
:1024E00076EC14F05DC001F05EC002F05FC003F056
:1024F000F2EC12F0D4EC11F04AC08FF049C08EF02B
:1025000048C08DF08DC058F08EC059F08FC05AF081
:1025100075EC13F0EFD70850051006100710D8B46B
:1025200026D0096E010E0A6E095006D0D8900536E5
:102530000636073608360A2A08AEF8D70550015C79
:10254000065002580750035808500458D8A008D025
:102550000550015E0650025A0750035A0850045AAB
:10256000D89008320732063205320A2EE7D701C06A
:1025700001F002C002F003C003F004C004F0120036
:102580000D6E8E0E116E0D5006D0D8900C320B329F
:102590000A320932112A000E09140D6E000E0A14B7
:1025A0000E6E000E0B140F6EFF0E0C14106E1050FA
:1025B0000D100E100F10D8A4E8D709C001F00AC002
:1025C00002F00BC003F011C004F00D6E000E056E9A
:1025D0000D50A5EC10F003C00BF002C00AF001C0D2
:1025E00009F01200000EC26E000EC06ED8900230CC
:1025F0003C0BC26E02C004F0043AF00E0416300E1A
:10260000041603500F0B0410C16E01C004F0D890E3
:102610000436D8900436380E041601C005F0053A89
:102620000F0E0516070E05160150800B051004103D
:10263000C06E02AE03D09E9C9D8CF28CC2801200B4
:10264000F00E9316F00E81160450056E066A800E89
:102650000512000E0612040E076E0634063205320D
:10266000072EFBD705500F0B81128A9C8A9AE5EC46
:1026700014F08A88E5EC14F08A98F00E8116045064
:102680000F0B8112E5EC14F08A88E5EC14F08A98BF
:102690000F0E9312120000EE87F0090EEE6AE806A4
:1026A000FDE1340EF66E2A0EF76E000EF86E00EEA7
:1026B00090F010EE09F00900F5CFEEFFE550E15083
:1026C000FAE1480EF66E2A0EF76E000EF86E09005B
:1026D000F5CF5DF00900F5CF5EF00900F5CF5FF0B2
:1026E000000EF86E000150EF12F020EE87F010EEB1
:1026F00081F0060EDECFE6FFE82EFCD70001000ECB
:102700004C6E0001810E4B6E080E4E6E760E4D6EB5
:1027100058C04FF059C050F05AC051F03FEC04F08F
:102720005B6E880E046E5B50D5EC14F00001000E59
:10273000066E0001810E056E76EC14F01200045056
:102740000310D8B41AD0056E010E066E055004D0E1
:10275000D89003360436062A04AEFAD70350015C3B
:1027600004500258D8A004D00350015E0450025A0D
:10277000D89004320332062EF1D701C001F002C016
:1027800002F012000C6E000E0D6E0C500AAE08D056
:10279000096C0A1ED8B00A2A0C6E010E0D6E0C5080
:1027A00009C001F00AC002F0036A0C6E8E0E046EBE
:1027B0000C500DC005F0A5EC10F003C00BF002C0EA
:1027C0000AF001C009F012001DC0D9FF1EC0DAFFD7
:1027D000DECF17F0DECF18F0DDCF19F01FC01AF0F2
:1027E00020C01BF021C01CF05BEC14F01DC0D9FF11
:1027F0001EC0DAFF17C0DEFF18C0DEFF19C0DDFF04
:10280000DD52120037C0D9FF38C0DAFFDECF26F024
:10281000DECF27F0DDCF28F039C029F03AC02AF00A
:102820003BC02BF04FEC0EF037C0D9FF38C0DAFFB9
:1028300026C0DEFF27C0DEFF28C0DDFFDD5212000C
:1028400046C0D9FF47C0DAFFDECF09F0DECF0AF07D
:10285000DDCF0BF048C00CF049C00DF04AC00EF0BF
:10286000D8EC0CF046C0D9FF47C0DAFF09C0DEFF44
:102870000AC0DEFF0BC0DDFFDD5212001150130253
:10288000F3CF15F0F4CF16F011501402F3CFF4FF8C
:10289000F36AF3501526F450162212501302F3CFA8
:1028A000F4FFF36AF3501526F450162215C011F008
:1028B00016C012F01200000E1A1A000E1B1A800E1B
:1028C0001C1A17C009F018C00AF019C00BF01AC082
:1028D0000CF01BC00DF01CC00EF0D8EC0CF00BC0BF
:1028E00019F00AC018F009C017F012000FD0C4EC9C
:1028F00014F00009D8A4FBD705C0D9FF06C0DAFF41
:10290000DF50046EB3EC14F0054A062A05C0D9FF67
:1029100006C0DAFFDF50D8B41200E9D77F0E0314E7
:1029200002100110D8B406D0000E011A000E021ACF
:10293000800E031A01C001F002C002F003C003F0D0
:102940001200026E000E036E02503A0E016007D0B4
:102950002F0E016404D0026E010E036E025003C0FC
:1029600002F002301200000E956E04C083FF8984CD
:102970008992E5EC14F08980E5EC14F08990E5EC9F
:1029800014F089949568120089828994E5EC14F01A
:102990008980E5EC14F083AE04D089908992010E11
:1029A00003D089908992000E1200000E956E04C02B
:1029B00083FF89928994E5EC14F08980E5EC14F0AA
:1029C0008990E5EC14F095681200026E000E036E1B
:1029D000025007D0026E320E016E02500EEC15F05E
:1029E000032A090E0364F6D712000D0E026EFB0EC9
:1029F000E82EFED7022EFCD700D0012EF6D712000B
:102A0000026E4B0E016E025007EC15F01200FA0E2A
:102A100000F0E82EFDD7012EFAD71200030EE82EA3
:102A2000FED700F0012EFAD71200C450026EC35038
:102A3000016E1200564F4C54414745200000C230F1
:0C2A4000010B1200C2821200DF1CFE001D
:020000040020DA
:08000000FFFFFFFFFFFFFFFF00
:020000040030CA
:0E000000040C1F1EFF8081FF0FC00FE00F4099
:00000001FF
