:020000040000FA
:0600000088EF06F012007B
:0A0006000100640D0000600000001E
:040010000C000000E0
:0C001400019E08D0019E09AE05D0086CCA
:10002000091EE86A0922018E09C003F008C002F027
:10003000136A126A8E0E046E056AE7EF01F0016A18
:1000400023EC02F03BEC02F001B6CBEF01F001A291
:1000500005D001BACBEF01F0D2EF01F001BADEEF2B
:1000600001F001A005D001B8CBEF01F0DEEF01F007
:1000700001B8D2EF01F0056A7F0E0A24046EE86A27
:1000800005220F50045EE86A055A1A0E106E0A6ABD
:10009000126A136A026A036A0C50075E0D50085A0E
:1000A0000E50095A000E0A5A09E70C5007260D5047
:1000B00008220E500922000E0A2201D0128AD8907E
:1000C0000736083609360A36D89012361336023605
:1000D0000336102EE1D7095008100710D8A4128A51
:1000E000E7EF01F0016A23EC02F03BEC02F001B60D
:1000F000CBEF01F001A205D001B8CBEF01F0D2EFB8
:1001000001F001AA05D001B0CBEF01F0D2EF01F070
:1001100001B002D001A802D0DEEF01F0056A0F5055
:100120000A24046EE86A05227E0E045EE86A055A17
:10013000126A136A026A036A0E500902F4CF03F0CE
:10014000F3CF02F00D500902F3501326F4500222AF
:10015000000E03220E500802F3501326F450022220
:10016000000E03220C500902F3501226F450132201
:10017000000E022203220D500802F3501226F45002
:100180001322000E022203220E500702F350122601
:10019000F4501322000E022203220C500802F450E5
:1001A0001226000E1322022203220D500702F450E1
:1001B0001226000E132202220322E7EF01F00F7E27
:1001C000016A23EC02F03BEC02F001B6CBEF01F048
:1001D00001A20AD001AA03D001BECBEF01F001A415
:1001E000D7EF01F0D4EF01F001AA05D001ACD7EFB1
:1001F00001F0D4EF01F001A00AD001A808D001BE9F
:1002000004D001A402D0E0EF01F0E4EF01F0126AA3
:10021000056A0F500A5C116E10E307C013F008C0A6
:1002200002F009C003F00AC010F00CC007F00DC0C6
:1002300008F00EC009F0013A09D00CC013F00DC04F
:1002400002F00EC003F00FC010F0116C019E01BC53
:10025000018E10C004F001B013EF02F01A0E11600D
:1002600013EF02F0046A0A6A01A408D0076C081EA2
:10027000091E0A1EE86A082209220A2201AC08D0D7
:10028000136C021E031E041EE86A022203220422CB
:10029000066A115207E00A34093208320732063280
:1002A000112EF9D7075013260850022209500322B5
:1002B0000A50042206C012F0019E04AE0BD0126C4C
:1002C000131E021E031E041EE86A132202220322CA
:1002D0000422018E04A006D0D880033202321332E9
:1002E0001232102A10C004F0E7EF01F0006A0EAEDF
:1002F0007FEF01F00D6C0E1EE86A0E22001E09AEA3
:1003000087EF01F0086C091EE86A0922001E52EC12
:1003100006F009BE97EF01F000AE000C086C091E54
:10032000E86A0922046C051EE86A0522000C00BE7A
:100330008EEF01F00188FF0C016A23EC02F001B698
:10034000A6EF01F001A20ED001B405D07F0E096E18
:10035000FF0E086E1FD0800E096E086A1BD0096A56
:10036000086A18D001B0FBD78F0E0A60EDD77E0E59
:100370000A64F5D78E0E0A5C05E0D890093208327F
:100380000A2AF8D701A406D0086C091EE86A0922D7
:1003900009AEE5D712007F0E0A6EFF0E096E086ED9
:1003A000076E12007F0E01BEFF0E0A6E02D07F0E96
:1003B0000A6E800E096E086A076AF3D701AE04D090
:1003C000800E0A6E096AF7D70A6A096AF4D70350E1
:1003D000021013101210F8E005BEF0D703BE0CD0C7
:1003E00004500510EBE0D89012361336023603366F
:1003F0000406D8A00506F2D70550D4E10428D2E0BF
:1004000012AE11D07F0E121402E113A00CD0132AE9
:10041000E86A0222032207E3D88003320232133251
:10042000042A0428BFE00450C9E013C007F002C04A
:1004300008F00334096E04300A6E09320A9E01BEC8
:100440000A8ED1EF01F009360A3602E30184017EFB
:1004500006E101800A6A096A086A076A12000A2826
:1004600003E0D88009321200D890093202E10182FB
:100470001200018612000E360F3602E3018C017E57
:1004800006E101880F6A0E6A0D6A0C6A12000F28D5
:1004900003E0D8800E321200D8900E32EAE1018AD1
:0204A000120048
:0E04A200D9CFE6FFE1CFD9FF080EE126F90E13
:1004B000DBCF07F0FA0EDBCF08F0FB0EDBCF09F045
:1004C000FC0EDBCF0AF09CEC01F0060E08C0DBFF4F
:1004D000070E09C0DBFFF90EDBCF14F0FA0EDBCFFD
:1004E00015F0FB0EDBCF16F0FC0EDBCF17F0060E7F
:1004F000DBCF08F0070EDBCF09F00CEC00F007C0F3
:1005000018F008C019F009C01AF00AC01BF018C092
:100510000CF019C00DF01AC00EF01BC00FF014C083
:1005200007F015C008F016C009F017C00AF0DFEC9C
:1005300000F007C0DEFF08C0DEFF09C0DEFF0AC012
:10054000DDFFDD52DD52D9CFE9FFDACFEAFFEECF92
:1005500014F0EECF15F0EECF16F0EFCF17F00C6AD7
:100560000D6AC80E0E6E420E0F6E14C007F015C055
:1005700008F016C009F017C00AF072EC00F09CEC0D
:1005800001F0040E08C0DBFF050E09C0DBFF300ED2
:10059000E76E060EDBCF14F0070EDBCF15F0E75049
:1005A0001426000E1522FD0EDBCFE9FFFE0EDBCF79
:1005B000EAFF14C0EFFFFD0EDB2AFE0E01E3DB2A8B
:1005C000FD0EDBCFE9FFFE0EDBCFEAFF2E0EEF6E56
:1005D000FD0EDB2AFE0E01E3DB2A040EDBCF14F056
:1005E000050EDBCF15F00A0E0D6E0E6A14C008F072
:1005F00015C009F076EC01F008C014F009C015F040
:10060000300E1426000E1522FD0EDBCFE9FFFE0E84
:10061000DBCFEAFF14C0EFFFFD0EDB2AFE0E01E385
:10062000DB2A040EDBCF14F0050EDBCF15F00A0E2B
:100630000D6E0E6A14C008F015C009F076EC01F0DA
:1006400004C014F005C015F0300E1426000E15225B
:10065000FD0EDBCFE9FFFE0EDBCFEAFF14C0EFFF9C
:10066000080EE15C02E2E16AE552E16EE552E7CF95
:10067000D9FF1200D9CFE6FFE1CFD9FF060EE12660
:10068000D9CFE9FFDACFEAFFEE6AEE6AEE6AEE6AE8
:10069000EE6AEE6AD950FB0FE96EFF0EDA20EA6EC1
:1006A000EECFE6FFEECFE6FFEECFE6FFEFCFE6FFC1
:1006B000D9CFE6FFDACFE6FFF4DE146E060EE15E78
:1006C0001450560EF36E040EF3CFDBFF880EE66E69
:1006D00090EC03F0E552D9CFE6FFDACFE6FF14EC59
:1006E00006F0E552E552060EE15C02E2E16AE552EF
:0A06F000E16EE552E7CFD9FF1200DA
:0606FA008982899470EC76
:1007000004F0898070EC04F083AE05D08990899262
:10071000010E05D004D089908992000E00D01200FD
:10072000D9CFE6FFE1CFD9FF956AFE0EDB50836E8D
:100730008992899470EC04F0898070EC04F08990BF
:1007400070EC04F0956800D0E552E7CFD9FF1200B5
:10075000D9CFE6FFE1CFD9FF956AFE0EDB50836E5D
:100760008984899270EC04F0898070EC04F089909F
:1007700070EC04F08994956800D0E552E7CFD9FF7A
:100780001200D9CFE6FFE1CFD9FF836A956A929232
:100790009294929089928994899085EC04F0300E1D
:1007A000E66EBEDFE552050EE66E3BEC06F0E55266
:1007B000300EE66EB5DFE552010EE66E3BEC06F05C
:1007C000E552320EE66EACDFE55297DF000901E03C
:1007D000FCD793DF000901E0FCD7FE0EDBCFE6FF7C
:1007E0009FDFE5528ADF000901E0FCD7080EE66EC4
:1007F00097DFE55282DF000901E0FCD70F0EE66EBD
:100800008FDFE5527ADF000901E0FCD7010EE66ECA
:1008100087DFE55272DF000901E0FCD7800EE66E4B
:10082000E9EC05F0E55200D0E552E7CFD9FF120020
:10083000D9CFE6FFE1CFD9FFE652DF6AFE0EDB50EB
:10084000D880DF5407E3050EE66E68EC06F0E5524B
:10085000DF2AF4D700D0E552E552E7CFD9FF1200E6
:10086000D9CFE6FFE1CFD9FFE652DF6AFE0EDB50BB
:10087000D880DF5407E3010EE66E68EC06F0E5521F
:10088000DF2AF4D700D0E552E552E7CFD9FF1200B6
:10089000D9CFE6FFE1CFD9FF020EE126DF6AFE0ED7
:1008A000DB50DF5C13E2010EDB6A0A0EF36E010E11
:1008B000DBCFF4FFF350F45C07E2640EE66EB8DFC2
:1008C000E552010EDB2AF1D7DF2AE9D7020EE15CFF
:1008D00002E2E16AE552E16EE552E7CFD9FF12008C
:1008E000D9CFE6FFE1CFD9FFE652DF6A0A0EDF5C1F
:1008F00007E2320EE66E96EC06F0E552DF2AF6D7F6
:10090000E552E552E7CFD9FF12004B0EE66E68ECD8
:1009100006F0E55200D01200D9CFE6FFE1CFD9FFB3
:10092000E652DF6A140EDF5C07E2190EE66E68EC31
:1009300006F0E552DF2AF6D700D0E552E552E7CFC0
:10094000D9FF1200010EE66E3BEC06F0E5521200F4
:10095000D9CFE6FFE1CFD9FF040EE126DE6ADE6AD9
:10096000DE6ADD6ADD52DD52AFEC06F0AAEC06F07D
:10097000000901E0FBD7A1EC06F0F3CF14F0F4CFAF
:1009800015F014C008F015C009F00CEC00F007C019
:10099000DEFF08C0DEFF09C0DEFF0AC0DDFFDD525A
:1009A000DD52D9CFE9FFDACFEAFFEECF1CF0EECF70
:1009B0001DF0EECF1EF0EFCF1FF00C6A0D6AA00EF7
:1009C0000E6E400E0F6E1CC007F01DC008F01EC05A
:1009D00009F01FC00AF072EC00F007C018F008C060
:1009E00019F009C01AF00AC01BF00C6A0D6A800EDB
:1009F0000E6E440E0F6E18C007F019C008F01AC032
:100A000009F01BC00AF01FEC00F007C014F008C08A
:100A100015F009C016F00AC017F014C006F015C092
:100A200007F016C008F017C009F0040EE15C03E2FD
:100A300000D0E16AE552E16EE552E7CFD9FF12003E
:100A4000060EF66E000EF76E000EF86E000109003D
:100A5000F550716F0900F550726F03E1716701D0B5
:100A60003DD00900F5506C6F0900F5506D6F09001D
:100A7000F5506E6F09000900F550E96E0900F55058
:100A8000EA6E090009000900F5506F6F0900F55082
:100A9000706F09000900F6CF73F0F7CF74F0F8CF4C
:100AA00075F06CC0F6FF6DC0F7FF6EC0F8FF000177
:100AB0006F5302E1705307E00900F550EE6E6F07C7
:100AC000F8E27007F9D773C0F6FF74C0F7FF75C07E
:0E0AD000F8FF00017107000E725BBFD7120025
:020ADE000F0EF9
:100AE000C16E380EE66EC1EC03F0E5520C0EE66EF8
:100AF00090EC03F0E552010EE66E90EC03F0E55247
:100B0000800EE66EE9EC05F0E552600EE66E000E32
:100B1000E66E14EC06F0E552E5526BC0E6FF6AC0E3
:100B2000E6FF69C0E6FFB2EC05F0E552E552E5529A
:100B3000A8EC04F006C076F007C077F008C078F0A3
:100B400009C079F076C0E6FF77C0E6FF78C0E6FF1F
:100B500079C0E6FF3AEC03F0E552E552E552E55282
:040B6000E7D71200C1
:0C0B6400D9CFE6FFDACFE6FFE1CFD9FFE2
:100B7000E2CFDAFFC26AC06AFC0EDB407F0B3C0B9F
:100B8000C26EFC0EDB38F00B300B146EFB0EDB502C
:100B90000F0B1410C16EFD0EDB50040DF350380B1B
:100BA000156EFD0EDB380F0B070B146EFD0EDB50C0
:100BB000800B14101510C06EFC0EDBAE03D09E9C93
:100BC0009D8CF28CC280E552E5CFDAFFE7CFD9FFEA
:020BD000120011
:0E0BD200D9CFE6FFDACFE6FFE1CFD9FFE2CFC1
:100BE000DAFFF00E93168116FD0EDB508009E8380F
:100BF0000F0B0F0B81128A9C8A9A0FD8F00E811668
:100C0000FD0EDB500F0B811208D80F0E9312E55228
:100C1000E5CFDAFFE7CFD9FF120070EC04F08A8845
:080C200070EC04F08A98120048
:080C2800D9CFE6FFDACFE6FFA9
:100C3000E1CFD9FFE2CFDAFF16D80FE07DEC03F069
:100C40000009FCE110D8E66EA8EC03F0E552FC0EBA
:100C5000DB2AFD0EF1E3DB2AEFD7E552E5CFDAFF21
:100C6000E7CFD9FF1200FC0EDBCFE9FFFD0EDBCF93
:060C7000EAFFEF50120044
:0A0C7600FF0EE350216EEF0E01D0D7
:100C8000F30EE76EE72E42EF06F00C0E206EE76AD9
:100C9000E72E48EF06F0202E47EF06F0212E40EF1A
:040CA00006F0120048
:0C0CA400056A046A100EE76ED89008364E
:100CB0000936043605360D50045C0E50055805E320
:100CC0000D50045E0E50055A082AE72EF0D7120088
:100CD000FF0EE350216E480E01D04C0EE76EE72E5A
:100CE000FED7E76AE72EFED7212EF7D700001200C5
:100CF000000EF36E00EE00F0080E01D81200EA605C
:100D000002D0EE6AFCD7F350E9601200EE6AFCD71D
:100D100013EE00F023EE00F0F86A019C20EC05F0E1
:0C0D2000B1EC06F06FEC05F0FBD7120000
:040D2C00FF0EE35083
:100D3000E84E1200000000D000D000D0E82EFAD714
:020D400012009F
:0E0D4200C450176E166AC3501610F36E17C019
:040D5000F4FF12009A
:0A0D5400C250020B01E0010E120074
:020D5E00C2824F
:020D600012007F
:020D620012007D
:0C0D6400564F4C544147452000DF1CFE58
:020000040030CA
:010001000CF2
:0100020019E4
:010003001EDE
:010005008179
:010006008079
:010008000FE8
:00000001FF
